:1000000012C019C018C017C016C015C014C013C044
:1000100012C011C010C00FC00EC00DC00CC00BC06C
:100020000AC009C008C011241FBECFE5D4E0DEBF5E
:10003000CDBF16D066C0E4CFC29AC49A909A939A64
:100040000895C09AC59A919A939A0895C09AC39AAE
:10005000929A949A0895C19AC39A909A959A0895FB
:10006000CF93DF938FEF87BB81BB14BA18BA12BA54
:10007000C8ECD0E0989B02C0DFDFFCCF999B02C0A8
:10008000E0DFF8CF9A9B02C0E1DFF4CF9B9B02C078
:10009000E2DFF0CF18BA12BAC29AC49A909A939A31
:1000A0008FEF9FEFFE013197F1F70197D9F718BA5B
:1000B00012BAC09AC59A919A939A8FEF9FEFFE0158
:1000C0003197F1F70197D9F718BA12BAC09AC39AC3
:1000D000929A949A8FEF9FEFFE013197F1F7019773
:1000E000D9F718BA12BAC19AC39A909A959A8FEF13
:1000F0009FEFFE013197F1F70197D9F718BA12BABD
:06010000B9CFF894FFCF17
:00000001FF
